00COTAHIST.2023BOVESPA 20230302                                                                                                                                                                                                                      
012023030202PARD3       010IHPARDINI   ON      NM   R$  000000000192600000000019260000000001882000000000189200000000018880000000001888000000000189500815000000000000160200000000000303179200000000000000009999123100000010000000000000BRPARDACNOR1125
012023030202PCAR3       010P.ACUCAR-CBDON      NM   R$  000000000142900000000014580000000001392000000000143000000000014250000000001425000000000142914051000000000005121300000000007327133600000000000000009999123100000010000000000000BRPCARACNOR3166
012023030202VIVR3       010VIVER       ON      NM   R$  000000000004200000000000430000000000040000000000004100000000000400000000000040000000000004100605000000000002757500000000000113379800000000000000009999123100000010000000000000BRVIVRACNOR4118
012023030202VIVT3       010TELEF BRASILON  EJ       R$  000000000388400000000039130000000003848000000000386300000000038560000000003856000000000385806883000000000002934300000000011335708300000000000000009999123100000010000000000000BRVIVTACNOR0170
012023030202VLID3       010VALID       ON      NM   R$  000000000089000000000008900000000000828000000000084900000000008280000000000828000000000083501436000000000000258700000000000219682100000000000000009999123100000010000000000000BRVLIDACNOR5137
012023030202VSTE3       010VESTE       ON      NM   R$  000000000126400000000012890000000001220000000000126100000000012460000000001246000000000126500156000000000000032600000000000041111800000000000000009999123100000010000000000000BRVSTEACNOR5100
012023030202VULC3       010VULCABRAS   ON      NM   R$  000000000115000000000011880000000001086000000000112200000000010910000000001090000000000109404944000000000001286300000000001444155300000000000000009999123100000010000000000000BRVULCACNOR2151
012023030202VVEO3       010VIVEO       ON      NM   R$  000000000174000000000017600000000001726000000000174400000000017330000000001731000000000173300758000000000000079800000000000139228300000000000000009999123100000010000000000000BRVVEOACNOR0103
012023030202CTKA4       010KARSTEN     PN           R$  000000000076600000000007660000000000702000000000073000000000007020000000000700000000000081800004000000000000000400000000000000292300000000000000009999123100000010000000000000BRCTKAACNPR7043
012023030202CTNM4       010COTEMINAS   PN           R$  000000000014800000000001500000000000144000000000014600000000001440000000000144000000000014700026000000000000006800000000000000998300000000000000009999123100000010000000000000BRCTNMACNPR6129
012023030202CTSA3       010SANTANENSE  ON           R$  000000000019000000000001970000000000181000000000019100000000001810000000000182000000000019400004000000000000000400000000000000076500000000000000009999123100000010000000000000BRCTSAACNOR3062
012023030202CTSA4       010SANTANENSE  PN           R$  000000000014600000000001460000000000140000000000014400000000001460000000000138000000000014600027000000000000010800000000000001556800000000000000009999123100000010000000000000BRCTSAACNPR0062
012023030202CURY3       010CURY S/A    ON      NM   R$  000000000123600000000012470000000001210000000000122500000000012100000000001209000000000121503912000000000000906400000000001110770000000000000000009999123100000010000000000000BRCURYACNOR3104
012023030202CVCB3       010CVC BRASIL  ON      NM   R$  000000000028700000000002900000000000275000000000028200000000002790000000000278000000000027906571000000000012115200000000003420800800000000000000009999123100000010000000000000BRCVCBACNOR1114
012023030202POMO3       010MARCOPOLO   ON      N2   R$  000000000025800000000002670000000000254000000000026000000000002620000000000260000000000026200776000000000000520400000000000135621700000000000000009999123100000010000000000000BRPOMOACNOR0091
012023030202POMO4       010MARCOPOLO   PN      N2   R$  000000000032200000000003400000000000322000000000033300000000003310000000000328000000000033207853000000000006658600000000002222585500000000000000009999123100000010000000000000BRPOMOACNPR7091
012023030202BEEF3       010MINERVA     ON      NM   R$  000000000114400000000011450000000001096000000000111400000000011000000000001099000000000110218417000000000009437300000000010517815000000000000000009999123100000010000000000000BRBEEFACNOR6114
012023030202BEES3       010BANESTES    ON  EJ       R$  000000000062400000000006370000000000624000000000062800000000006250000000000625000000000062700063000000000000010400000000000006539200000000000000009999123100000010000000000000BRBEESACNOR9373
012023030202BEES4       010BANESTES    PN  EJ       R$  000000000072100000000007220000000000712000000000071800000000007120000000000707000000000071200023000000000000003400000000000002441400000000000000009999123100000010000000000000BRBEESACNPR6298
012023030202WEGE3       010WEG         ON  ED  NM   R$  000000000393700000000039760000000003899000000000392700000000039160000000003916000000000391716784000000000004163300000000016350522300000000000000009999123100000010000000000000BRWEGEACNOR0215
012023030202WEST3       010WESTWING    ON      NM   R$  000000000009300000000000960000000000093000000000009300000000000930000000000093000000000009400048000000000000025800000000000002408900000000000000009999123100000010000000000000BRWESTACNOR3100
012023030202BAHI3       010BAHEMA      ON      MA   R$  000000000108000000000010800000000001080000000000108000000000010800000000001057000000000110900002000000000000000200000000000000216000000000000000009999123100000010000000000000BRBAHIACNOR1073
012023030202BALM4       010BAUMER      PN           R$  000000000086000000000008600000000000855000000000085700000000008550000000000855000000000089800005000000000000001200000000000001029500000000000000009999123100000010000000000000BRBALMACNPR2054
012023030202BAZA3       010AMAZONIA    ON           R$  000000000601000000000060550000000005930000000000596800000000060550000000005931000000000605600019000000000000002800000000000016712100000000000000009999123100000010000000000000BRBAZAACNOR0177
012023030202BBAS3       010BRASIL      ON  EX  NM   R$  000000000390000000000039080000000003737000000000379800000000037430000000003743000000000374451002000000000017489300000000066426204500000000000000009999123100000010000000000000BRBBASACNOR3312
012023030202BLAU3       010BLAU        ON      NM   R$  000000000282100000000029100000000002798000000000286700000000028570000000002857000000000287401208000000000000198600000000000569425400000000000000009999123100000010000000000000BRBLAUACNOR8108
012023030202BMEB4       010MERC BRASIL PN      N1   R$  000000000100100000000010020000000000996000000000100000000000009960000000000995000000000101100008000000000000001400000000000001400700000000000000009999123100000010000000000000BRBMEBACNPR5207
012023030202BMGB4       010BANCO BMG   PN      N1   R$  000000000020800000000002080000000000203000000000020400000000002040000000000204000000000020501398000000000001127300000000000230928700000000000000009999123100000010000000000000BRBMGBACNPR0105
012023030202BMKS3       010BIC MONARK  ON           R$  000000003879900000000387990000000038000000000003869600000000380000000000033100000000003800000003000000000000000069000000000002670040000000000000009999123100000010000000000000BRBMKSACNOR9164
012023030202BMOB3       010BEMOBI TECH ON      NM   R$  000000000138400000000013930000000001348000000000136000000000013480000000001348000000000135401184000000000000251800000000000342585100000000000000009999123100000010000000000000BRBMOBACNOR7101
012023030202BNBR3       010NORD BRASIL ON           R$  000000000790000000000079000000000007900000000000790000000000079000000000007700000000000805000001000000000000000100000000000000790000000000000000009999123100000010000000000000BRBNBRACNOR8204
012023030202BOAS3       010BOA VISTA   ON      NM   R$  000000000075200000000007530000000000745000000000075000000000007530000000000752000000000075403599000000000001936500000000001452706600000000000000009999123100000010000000000000BRBOASACNOR6104
012023030202BOBR4       010BOMBRIL     PN           R$  000000000011500000000001190000000000113000000000011600000000001180000000000118000000000011900046000000000000013200000000000001540200000000000000009999123100000010000000000000BRBOBRACNPR3128
012023030202CEBR3       010CEB         ON           R$  000000000107800000000011140000000001070000000000108800000000011140000000001075000000000111500036000000000000006700000000000007291600000000000000009999123100000010000000000000BRCEBRACNOR5122
012023030202CEBR5       010CEB         PNA          R$  000000000112900000000011290000000001120000000000112400000000011200000000001110000000000112000002000000000000000200000000000000224900000000000000009999123100000010000000000000BRCEBRACNPA8121
012023030202CEBR6       010CEB         PNB          R$  000000000111000000000011120000000001105000000000110700000000011060000000001105000000000111000021000000000000008800000000000009744100000000000000009999123100000010000000000000BRCEBRACNPB6121
012023030202CEDO4       010CEDRO       PN      N1   R$  000000000032600000000003260000000000326000000000032600000000003260000000000323000000000033500001000000000000000200000000000000065200000000000000009999123100000010000000000000BRCEDOACNPR5128
012023030202CEEB3       010COELBA      ON           R$  000000000372400000000037240000000003724000000000372400000000037240000000003664000000000373400001000000000000000100000000000000372400000000000000009999123100000010000000000000BRCEEBACNOR3190
012023030202CGAS5       010COMGAS      PNA          R$  000000001290000000000130100000000012789000000001290100000000129110000000012700000000001290900005000000000000000500000000000006450900000000000000009999123100000010000000000000BRCGASACNPA3156
012023030202CGRA3       010GRAZZIOTIN  ON           R$  000000000282700000000028640000000002825000000000283500000000028640000000002751000000000284700004000000000000000400000000000001134200000000000000009999123100000010000000000000BRCGRAACNOR2078
012023030202CGRA4       010GRAZZIOTIN  PN           R$  000000000265700000000026780000000002656000000000266600000000026730000000002657000000000268800009000000000000001300000000000003466000000000000000009999123100000010000000000000BRCGRAACNPR9078
012023030202CIEL3       010CIELO       ON      NM   R$  000000000047500000000004920000000000475000000000048200000000004780000000000478000000000047919871000000000019886600000000009601625300000000000000009999123100000010000000000000BRCIELACNOR3152
012023030202CLSA3       010CLEARSALE   ON      NM   R$  000000000053700000000005540000000000519000000000053800000000005420000000000542000000000054302599000000000000706500000000000380791100000000000000009999123100000010000000000000BRCLSAACNOR0100
012023030202CLSC3       010CELESC      ON      N2   R$  000000000479800000000049230000000004798000000000488000000000049200000000004798000000000491100003000000000000000300000000000001464100000000000000009999123100000010000000000000BRCLSCACNOR6144
012023030202CLSC4       010CELESC      PN      N2   R$  000000000499400000000050170000000004994000000000499900000000050000000000004941000000000511400011000000000000001900000000000009498600000000000000009999123100000010000000000000BRCLSCACNPR3123
012023030202CMIG3       010CEMIG       ON      N1   R$  000000000152300000000015440000000001516000000000152900000000015240000000001519000000000152400466000000000000092400000000000141328900000000000000009999123100000010000000000000BRCMIGACNOR6234
012023030202CMIG4       010CEMIG       PN      N1   R$  000000000104400000000010580000000001032000000000104100000000010350000000001035000000000103610884000000000007152400000000007450548200000000000000009999123100000010000000000000BRCMIGACNPR3235
012023030202ELET3       010ELETROBRAS  ON      N1   R$  000000000335000000000034070000000003312000000000335000000000033170000000003317000000000332028140000000000010119200000000033909434300000000000000009999123100000010000000000000BRELETACNOR6158
012023030202ELET6       010ELETROBRAS  PNB     N1   R$  000000000352200000000035960000000003480000000000353500000000035000000000003497000000000350006937000000000001809300000000006396689500000000000000009999123100000010000000000000BRELETACNPB7075
012023030202CXSE3       010CAIXA SEGURION      NM   R$  000000000084900000000008550000000000835000000000084200000000008390000000000838000000000084005473000000000001740600000000001466275000000000000000009999123100000010000000000000BRCXSEACNOR7103
012023030202CYRE3       010CYRELA REALTON      NM   R$  000000000148700000000015190000000001461000000000148200000000014790000000001478000000000147910755000000000005315800000000007879862700000000000000009999123100000010000000000000BRCYREACNOR7137
012023030202GGPS3       010GPS         ON      NM   R$  000000000116800000000011930000000001167000000000118200000000011860000000001184000000000118604611000000000001509100000000001784260300000000000000009999123100000010000000000000BRGGPSACNOR9101
012023030202MILS3       010MILLS       ON      NM   R$  000000000106000000000010830000000001010000000000104700000000010550000000001049000000000105505040000000000001222400000000001280073500000000000000009999123100000010000000000000BRMILSACNOR2119
012023030202MLAS3       010MULTILASER  ON      NM   R$  000000000023100000000002340000000000220000000000022600000000002200000000000220000000000022104455000000000002107000000000000478268600000000000000009999123100000010000000000000BRMLASACNOR9101
012023030202MNDL3       010MUNDIAL     ON           R$  000000000484900000000052840000000004461000000000498500000000052500000000005000000000000525000044000000000000005800000000000028913100000000000000009999123100000010000000000000BRMNDLACNOR4107
012023030202MNPR3       010MINUPAR     ON           R$  000000000072400000000007760000000000724000000000074600000000007570000000000735000000000076200040000000000000014500000000000010818000000000000000009999123100000010000000000000BRMNPRACNOR5122
012023030202MOAR3       010MONT ARANHA ON           R$  000000004500000000000450000000000044017000000004458600000000449960000000028000000000005250000005000000000000000500000000000022293100000000000000009999123100000010000000000000BRMOARACNOR5226
012023030202MODL3       010MODALMAIS   ON      NM   R$  000000000016600000000001660000000000158000000000015900000000001600000000000160000000000016102732000000000003419300000000000546867500000000000000009999123100000010000000000000BRMODLACNOR2108
012023030202MOVI3       010MOVIDA      ON      NM   R$  000000000061600000000006260000000000605000000000061100000000006090000000000609000000000061011186000000000004562100000000002791455900000000000000009999123100000010000000000000BRMOVIACNOR0121
012023030202MRFG3       010MARFRIG     ON      NM   R$  000000000064000000000006720000000000612000000000064900000000006650000000000664000000000066526348000000000026594400000000017264651300000000000000009999123100000010000000000000BRMRFGACNOR0115
012023030202ALPK3       010ESTAPAR     ON      NM   R$  000000000013000000000001420000000000129000000000013300000000001290000000000129000000000013100778000000000000280100000000000037477900000000000000009999123100000010000000000000BRALPKACNOR9101
012023030202ALSO3       010ALIANSCSONAEON      NM   R$  000000000166000000000016870000000001634000000000165600000000016410000000001640000000000164212644000000000003084400000000005109828900000000000000009999123100000010000000000000BRALSOACNOR5102
012023030202ALUP11      010ALUPAR      UNT     N2   R$  000000000282000000000029030000000002786000000000283100000000028100000000002809000000000281008106000000000001461700000000004139252900000000000000009999123100000010000000000000BRALUPCDAM15113
012023030202ALUP3       010ALUPAR      ON      N2   R$  000000000094100000000009740000000000932000000000095100000000009490000000000945000000000095000109000000000000015500000000000014744700000000000000009999123100000010000000000000BRALUPACNOR8113
012023030202ALUP4       010ALUPAR      PN      N2   R$  000000000094000000000009600000000000929000000000094200000000009500000000000933000000000095000109000000000000018600000000000017522200000000000000009999123100000010000000000000BRALUPACNPR5113
012023030202AMAR3       010LOJAS MARISAON      NM   R$  000000000006000000000000640000000000059000000000006100000000000610000000000061000000000006203796000000000006750700000000000412792400000000000000009999123100000010000000000000BRAMARACNOR4113
012023030202AMBP3       010AMBIPAR     ON      NM   R$  000000000194200000000019660000000001927000000000194100000000019280000000001928000000000193603844000000000000711600000000001381671200000000000000009999123100000010000000000000BRAMBPACNOR6102
012023030202BPAN4       010BANCO PAN   PN      N1   R$  000000000050200000000005130000000000499000000000050600000000005010000000000501000000000050203915000000000001448000000000000733365900000000000000009999123100000010000000000000BRBPANACNPR1114
012023030202BRAP3       010BRADESPAR   ON      N1   R$  000000000260900000000026230000000002557000000000258200000000025570000000002557000000000258100296000000000000045200000000000116723400000000000000009999123100000010000000000000BRBRAPACNOR5145
012023030202BRAP4       010BRADESPAR   PN      N1   R$  000000000289000000000029080000000002840000000000286200000000028570000000002855000000000285804853000000000001713600000000004905826100000000000000009999123100000010000000000000BRBRAPACNPR2145
012023030202BRBI11      010BR PARTNERS UNT     N2   R$  000000000107300000000011120000000001060000000000108900000000010900000000001084000000000109000424000000000000070400000000000076696300000000000000009999123100000010000000000000BRBRBICDAM10103
012023030202BRFS3       010BRF SA      ON      NM   R$  000000000064900000000006890000000000618000000000066700000000006740000000000674000000000067525908000000000031479300000000021002488900000000000000009999123100000010000000000000BRBRFSACNOR8121
012023030202CSNA3       010SID NACIONALON           R$  000000000179400000000018060000000001765000000000177900000000017770000000001777000000000177811272000000000006129500000000010906799000000000000000009999123100000010000000000000BRCSNAACNOR6258
012023030202FHER3       010FER HERINGERON      NM   R$  000000000167200000000016800000000001640000000000165700000000016640000000001664000000000166500282000000000000067800000000000112354800000000000000009999123100000010000000000000BRFHERACNOR5103
012023030202FIQE3       010UNIFIQUE    ON      NM   R$  000000000031300000000003220000000000309000000000031600000000003220000000000320000000000032200353000000000000104300000000000033009100000000000000009999123100000010000000000000BRFIQEACNOR5102
012023030202HBOR3       010HELBOR      ON      NM   R$  000000000018900000000001970000000000187000000000019200000000001970000000000193000000000019703190000000000001224800000000000236364100000000000000009999123100000010000000000000BRHBORACNOR3116
012023030202HBRE3       010HBR REALTY  ON      NM   R$  000000000043900000000004390000000000419000000000042500000000004190000000000419000000000042900056000000000000044600000000000018999000000000000000009999123100000010000000000000BRHBREACNOR4100
012023030202HBSA3       010HIDROVIAS   ON      NM   R$  000000000018700000000001880000000000181000000000018400000000001810000000000181000000000018303050000000000002730900000000000504370800000000000000009999123100000010000000000000BRHBSAACNOR0100
012023030202HBTS5       010HABITASUL   PNA          R$  000000000242000000000025000000000002420000000000246000000000025000000000002500000000000300000002000000000000000200000000000000492000000000000000009999123100000010000000000000BRHBTSACNPA3126
012023030202HETA4       010HERCULES    PN           R$  000000000034500000000003790000000000345000000000036500000000003790000000000332000000000037900012000000000000002400000000000000876400000000000000009999123100000010000000000000BRHETAACNPR9136
012023030202JHSF3       010JHSF PART   ON      NM   R$  000000000043200000000004450000000000424000000000043100000000004240000000000424000000000042704690000000000002210400000000000952803700000000000000009999123100000010000000000000BRJHSFACNOR2123
012023030202JSLG3       010JSL         ON      NM   R$  000000000067100000000006840000000000659000000000066700000000006590000000000659000000000067201444000000000000352200000000000235087700000000000000009999123100000010000000000000BRJSLGACNOR2120
012023030202TAEE11      010TAESA       UNT     N2   R$  000000000356900000000036280000000003547000000000357800000000035550000000003554000000000355509846000000000001844000000000006598970300000000000000009999123100000010000000000000BRTAEECDAM10141
012023030202TAEE3       010TAESA       ON      N2   R$  000000000119400000000012090000000001185000000000119400000000011920000000001187000000000119201262000000000000228700000000000273089300000000000000009999123100000010000000000000BRTAEEACNOR9141
012023030202HYPE3       010HYPERA      ON      NM   R$  000000000411400000000042440000000004114000000000418800000000041780000000004178000000000417923014000000000004788700000000020059469700000000000000009999123100000010000000000000BRHYPEACNOR0132
012023030202KLBN11      010KLABIN S/A  UNT     N2   R$  000000000196100000000019880000000001951000000000196700000000019640000000001964000000000196510062000000000005110200000000010055353100000000000000009999123100000010000000000000BRKLBNCDAM18135
012023030202KLBN3       010KLABIN S/A  ON      N2   R$  000000000039500000000004000000000000392000000000039600000000003970000000000395000000000039700721000000000000443200000000000175849100000000000000009999123100000010000000000000BRKLBNACNOR2163
012023030202KLBN4       010KLABIN S/A  PN      N2   R$  000000000039300000000003960000000000390000000000039300000000003920000000000392000000000039301872000000000002283600000000000897765500000000000000009999123100000010000000000000BRKLBNACNPR9163
012023030202KRSA3       010KORA SAUDE  ON      NM   R$  000000000009600000000001030000000000096000000000009900000000001000000000000100000000000010500251000000000000997300000000000098953100000000000000009999123100000010000000000000BRKRSAACNOR0100
012023030202LAND3       010TERRASANTAPAON      NM   R$  000000000298600000000029860000000002900000000000292500000000029000000000002894000000000290000053000000000000009200000000000026911700000000000000009999123100000010000000000000BRLANDACNOR9101
012023030202LAVV3       010LAVVI       ON      NM   R$  000000000052000000000005290000000000512000000000051900000000005150000000000515000000000052001016000000000000265300000000000137774100000000000000009999123100000010000000000000BRLAVVACNOR4105
012023030202LEVE3       010METAL LEVE  ON      NM   R$  000000000330400000000033320000000003217000000000325000000000032170000000003217000000000322501118000000000000181500000000000590048000000000000000009999123100000010000000000000BRLEVEACNOR2192
012023030202NGRD3       010NEOGRID     ON      NM   R$  000000000011400000000001150000000000113000000000011400000000001130000000000113000000000011500261000000000000247500000000000028266200000000000000009999123100000010000000000000BRNGRDACNOR3102
012023030202NINJ3       010GETNINJAS   ON      NM   R$  000000000024100000000002530000000000237000000000024400000000002390000000000239000000000024200351000000000000108100000000000026438700000000000000009999123100000010000000000000BRNINJACNOR5100
012023030202NTCO3       010GRUPO NATURAON      NM   R$  000000000145100000000014650000000001406000000000143000000000014370000000001437000000000143936000000000000018852200000000026972333900000000000000009999123100000010000000000000BRNTCOACNOR5103
012023030202PETZ3       010PETZ        ON      NM   R$  000000000063700000000006480000000000615000000000062800000000006330000000000633000000000063410782000000000009270200000000005830113000000000000000009999123100000010000000000000BRPETZACNOR2107
012023030202PFRM3       010PROFARMA    ON      NM   R$  000000000033100000000003340000000000321000000000032500000000003210000000000321000000000032600563000000000000085400000000000027799200000000000000009999123100000010000000000000BRPFRMACNOR1114
012023030202PGMN3       010PAGUE MENOS ON      NM   R$  000000000034500000000003450000000000332000000000033500000000003370000000000333000000000033702146000000000000644800000000000216531300000000000000009999123100000010000000000000BRPGMNACNOR8101
012023030202PINE4       010PINE        PN      N2   R$  000000000018400000000001910000000000175000000000018800000000001910000000000184000000000019100183000000000000421400000000000079255500000000000000009999123100000010000000000000BRPINEACNPR8146
012023030202PLPL3       010PLANOEPLANO ON      NM   R$  000000000041800000000004200000000000407000000000041100000000004150000000000407000000000041500978000000000000520000000000000213814500000000000000009999123100000010000000000000BRPLPLACNOR5102
012023030202PNVL3       010DIMED       ON      NM   R$  000000000100500000000010080000000000964000000000097900000000009640000000000963000000000096402260000000000000406500000000000397995700000000000000009999123100000010000000000000BRPNVLACNOR9202
012023030202BIOM3       010BIOMM       ON      MA   R$  000000000041300000000004610000000000410000000000043400000000004240000000000411000000000042400128000000000000021400000000000009308900000000000000009999123100000010000000000000BRBIOMACNOR2110
012023030202FLRY3       010FLEURY      ON      NM   R$  000000000142700000000014270000000001397000000000140400000000013970000000001397000000000139907726000000000001516400000000002129968800000000000000009999123100000010000000000000BRFLRYACNOR5134
012023030202FRAS3       010FRAS-LE     ON      N1   R$  000000000103600000000010360000000000987000000000100800000000010000000000000999000000000101002208000000000000624800000000000629986300000000000000009999123100000010000000000000BRFRASACNOR0156
012023030202GFSA3       010GAFISA      ON      NM   R$  000000000077300000000007940000000000714000000000075900000000007250000000000723000000000072503208000000000002478600000000001882019200000000000000009999123100000010000000000000BRGFSAACNOR3122
012023030202GGBR3       010GERDAU      ON      N1   R$  000000000251400000000025500000000002484000000000250500000000025120000000002500000000000251200202000000000000033700000000000084431900000000000000009999123100000010000000000000BRGGBRACNOR1184
012023030202GGBR4       010GERDAU      PN      N1   R$  000000000295100000000029990000000002922000000000295200000000029570000000002957000000000295820707000000000008607000000000025416010800000000000000009999123100000010000000000000BRGGBRACNPR8184
012023030202GUAR3       010GUARARAPES  ON      NM   R$  000000000041900000000004320000000000406000000000042100000000004240000000000423000000000042405438000000000001887100000000000794764000000000000000009999123100000010000000000000BRGUARACNOR4172
012023030202HAGA3       010HAGA S/A    ON           R$  000000000018000000000001840000000000179000000000018000000000001790000000000179000000000018000009000000000000003700000000000000669600000000000000009999123100000010000000000000BRHAGAACNOR7103
012023030202KEPL3       010KEPLER WEBERON           R$  000000000200100000000021680000000002001000000000210000000000021370000000002136000000000213706221000000000001293200000000002716893500000000000000009999123100000010000000000000BRKEPLACNOR1057
012023030202MTRE3       010MITRE REALTYON      NM   R$  000000000037400000000003760000000000359000000000036400000000003610000000000361000000000036401315000000000000328600000000000119651200000000000000009999123100000010000000000000BRMTREACNOR6106
012023030202MTSA4       010METISA      PN           R$  000000000436400000000044000000000004262000000000437500000000043990000000003770000000000440000013000000000000001400000000000006125200000000000000009999123100000010000000000000BRMTSAACNPR9066
012023030202MULT3       010MULTIPLAN   ON      N2   R$  000000000252600000000025580000000002457000000000248800000000024600000000002460000000000246223875000000000006647900000000016544403200000000000000009999123100000010000000000000BRMULTACNOR5132
012023030202MWET4       010WETZEL S/A  PN           R$  000000000120000000000012000000000001200000000000120000000000012000000000001132000000000124800001000000000000001500000000000001800000000000000000009999123100000010000000000000BRMWETACNPR3118
012023030202MYPK3       010IOCHP-MAXIONON      NM   R$  000000000110000000000011010000000001081000000000109100000000010920000000001091000000000109203787000000000000857100000000000935751900000000000000009999123100000010000000000000BRMYPKACNOR7152
012023030202NEOE3       010NEOENERGIA  ON      NM   R$  000000000141000000000014720000000001408000000000143600000000014180000000001418000000000142010562000000000002830000000000004066248300000000000000009999123100000010000000000000BRNEOEACNOR3118
012023030202AZUL4       010AZUL        PN      N2   R$  000000000069100000000006990000000000671000000000068300000000006790000000000678000000000067908278000000000011173000000000007639191900000000000000009999123100000010000000000000BRAZULACNPR4101
012023030202B3SA3       010B3          ON  ED  NM   R$  000000000105100000000010940000000001045000000000107400000000010590000000001059000000000106064791000000000074473100000000080033566100000000000000009999123100000010000000000000BRB3SAACNOR6126
012023030202BRPR3       010BR PROPERT  ON  EG  NM   R$  000000002406000000000242480000000023875000000002399500000000240000000000023978000000002400200387000000000000071300000000001710861600000000000000009999123100000010000000000000BRBRPRACNOR9125
012023030202BRSR3       010BANRISUL    ON      N1   R$  000000000109800000000010990000000001080000000000108400000000010800000000001080000000000109200018000000000000002400000000000002603600000000000000009999123100000010000000000000BRBRSRACNOR3181
012023030202BRSR6       010BANRISUL    PNB     N1   R$  000000000098400000000010010000000000972000000000098200000000009720000000000972000000000097304713000000000001634700000000001606218600000000000000009999123100000010000000000000BRBRSRACNPB4184
012023030202BSLI4       010BRB BANCO   PN           R$  000000000115000000000011500000000001150000000000115000000000011500000000001151000000000118900001000000000000000100000000000000115000000000000000009999123100000010000000000000BRBSLIACNPR2189
012023030202DASA3       010DASA        ON      NM   R$  000000000090200000000009020000000000856000000000087400000000008560000000000856000000000086501481000000000000222600000000000194749900000000000000009999123100000010000000000000BRDASAACNOR1122
012023030202DESK3       010DESKTOP     ON      NM   R$  000000000079900000000008050000000000770000000000078900000000007990000000000793000000000079900513000000000000088900000000000070186600000000000000009999123100000010000000000000BRDESKACNOR2102
012023030202DEXP3       010DEXXOS PAR  ON      N1   R$  000000000073800000000007540000000000731000000000073700000000007310000000000731000000000074100221000000000000060400000000000044553300000000000000009999123100000010000000000000BRDEXPACNOR1102
012023030202DEXP4       010DEXXOS PAR  PN      N1   R$  000000000064000000000006710000000000616000000000063100000000006350000000000635000000000065000029000000000000007700000000000004865700000000000000009999123100000010000000000000BRDEXPACNPR8102
012023030202DIRR3       010DIRECIONAL  ON      NM   R$  000000000148700000000015160000000001450000000000149200000000014970000000001496000000000149706567000000000001378600000000002057149500000000000000009999123100000010000000000000BRDIRRACNOR0116
012023030202DMVF3       010D1000VFARMA ON      NM   R$  000000000035400000000003610000000000354000000000035600000000003540000000000354000000000035900060000000000000030200000000000010767000000000000000009999123100000010000000000000BRDMVFACNOR9100
012023030202DOHL4       010DOHLER      PN           R$  000000000042600000000004260000000000426000000000042600000000004260000000000416000000000042500001000000000000000100000000000000042600000000000000009999123100000010000000000000BRDOHLACNPR9066
012023030202DOTZ3       010DOTZ SA     ON      NM   R$  000000000008300000000000850000000000081000000000008200000000000810000000000081000000000008400118000000000000033500000000000002771900000000000000009999123100000010000000000000BRDOTZACNOR7100
012023030202DXCO3       010DEXCO       ON      NM   R$  000000000064500000000006570000000000639000000000064700000000006510000000000650000000000065110448000000000004108900000000002658938100000000000000009999123100000010000000000000BRDXCOACNOR8103
012023030202GMAT3       010GRUPO MATEUSON      NM   R$  000000000054800000000005540000000000527000000000053800000000005290000000000529000000000053011064000000000005136800000000002767715100000000000000009999123100000010000000000000BRGMATACNOR7100
012023030202GOAU3       010GERDAU MET  ON      N1   R$  000000000121500000000012150000000001183000000000120200000000012090000000001200000000000120900722000000000000155900000000000187406200000000000000009999123100000010000000000000BRGOAUACNOR1261
012023030202GOAU4       010GERDAU MET  PN      N1   R$  000000000129500000000013080000000001274000000000129000000000013000000000001299000000000130013331000000000008384200000000010821456300000000000000009999123100000010000000000000BRGOAUACNPR8262
012023030202GOLL4       010GOL         PN      N2   R$  000000000051900000000005230000000000503000000000051200000000005060000000000505000000000050606509000000000012970700000000006650534600000000000000009999123100000010000000000000BRGOLLACNPR4127
012023030202GRND3       010GRENDENE    ON      NM   R$  000000000068400000000007160000000000671000000000069500000000006980000000000697000000000069811140000000000004724000000000003285781700000000000000009999123100000010000000000000BRGRNDACNOR3168
012023030202JALL3       010JALLESMACHADON      NM   R$  000000000075700000000007570000000000742000000000074900000000007490000000000748000000000074902453000000000000681000000000000510388300000000000000009999123100000010000000000000BRJALLACNOR0103
012023030202JBSS3       010JBS         ON      NM   R$  000000000191900000000019590000000001880000000000192600000000019350000000001935000000000193625212000000000011511000000000022172968500000000000000009999123100000010000000000000BRJBSSACNOR8120
012023030202MRVE3       010MRV         ON      NM   R$  000000000057200000000005790000000000560000000000056700000000005620000000000562000000000056321222000000000018206100000000010329532400000000000000009999123100000010000000000000BRMRVEACNOR2126
012023030202ANIM3       010ANIMA       ON      NM   R$  000000000032100000000003280000000000317000000000032200000000003230000000000323000000000032404410000000000003635000000000001172260100000000000000009999123100000010000000000000BRANIMACNOR6107
012023030202APER3       010ALPER S.A.  ON      NM   R$  000000000271800000000027400000000002655000000000272500000000027260000000002726000000000273600068000000000000011400000000000031067200000000000000009999123100000010000000000000BRAPERACNOR9105
012023030202ARML3       010ARMAC       ON      NM   R$  000000000136200000000013650000000001296000000000132600000000013410000000001341000000000134501786000000000000317500000000000421028600000000000000009999123100000010000000000000BRARMLACNOR1106
012023030202ARZZ3       010AREZZO CO   ON      NM   R$  000000000739200000000075000000000007273000000000734700000000072730000000007273000000000727503436000000000000609000000000004474750600000000000000009999123100000010000000000000BRARZZACNOR3144
012023030202ASAI3       010ASSAI       ON      NM   R$  000000000176400000000017840000000001745000000000175800000000017500000000001750000000000175221521000000000007002300000000012313731100000000000000009999123100000010000000000000BRASAIACNOR0105
012023030202ATOM3       010ATOMPAR     ON           R$  000000000025400000000002700000000000250000000000025700000000002600000000000255000000000026200090000000000000034300000000000008837700000000000000009999123100000010000000000000BRATOMACNOR1105
012023030202AURE3       010AUREN       ON      NM   R$  000000000147300000000014910000000001463000000000147200000000014730000000001471000000000147306930000000000002250800000000003313193000000000000000009999123100000010000000000000BRAUREACNOR9101
012023030202AVLL3       010ALPHAVILLE  ON      NM   R$  000000000099000000000009900000000000990000000000099000000000009900000000000801000000000098900001000000000000000100000000000000099000000000000000009999123100000010000000000000BRAVLLACNOR5101
012023030202AZEV3       010AZEVEDO     ON           R$  000000000014200000000001440000000000138000000000014100000000001420000000000139000000000014200063000000000000036900000000000005221200000000000000009999123100000010000000000000BRAZEVACNOR0120
012023030202AZEV4       010AZEVEDO     PN           R$  000000000014400000000001490000000000140000000000014500000000001450000000000143000000000014500299000000000000227500000000000033021800000000000000009999123100000010000000000000BRAZEVACNPR7120
012023030202BBSE3       010BBSEGURIDADEON      NM   R$  000000000340000000000034770000000003382000000000345100000000034570000000003456000000000345718109000000000006388500000000022049762800000000000000009999123100000010000000000000BRBBSEACNOR5122
012023030202BRIT3       010BRISANET    ON      NM   R$  000000000021100000000002380000000000209000000000021900000000002350000000000234000000000023500548000000000000234100000000000051459900000000000000009999123100000010000000000000BRBRITACNOR0101
012023030202BRIV4       010ALFA INVEST PN           R$  000000000091400000000009140000000000900000000000090200000000009000000000000850000000000091400003000000000000001600000000000001444200000000000000009999123100000010000000000000BRBRIVACNPR3216
012023030202BRKM3       010BRASKEM     ON      N1   R$  000000000205800000000020850000000002024000000000205600000000020580000000002058000000000207500088000000000000011700000000000024065600000000000000009999123100000010000000000000BRBRKMACNOR1119
012023030202BRKM5       010BRASKEM     PNA     N1   R$  000000000196600000000020550000000001945000000000202500000000020470000000002046000000000204712701000000000003911900000000007922354200000000000000009999123100000010000000000000BRBRKMACNPA4120
012023030202CSUD3       010CSU DIGITAL ON      NM   R$  000000000106000000000010600000000000994000000000101700000000010100000000001004000000000101000742000000000000183100000000000186342300000000000000009999123100000010000000000000BRCSUDACNOR5102
012023030202QUAL3       010QUALICORP   ON      NM   R$  000000000046900000000004700000000000444000000000045100000000004440000000000444000000000044511256000000000005580100000000002519224000000000000000009999123100000010000000000000BRQUALACNOR6118
012023030202SYNE3       010SYN PROP TECON      NM   R$  000000000039800000000003980000000000390000000000039300000000003910000000000391000000000039801092000000000000274100000000000107968700000000000000009999123100000010000000000000BRSYNEACNOR2102
012023030202VIIA3       010VIA         ON      NM   R$  000000000018600000000001880000000000180000000000018300000000001830000000000182000000000018315676000000000044992700000000008257933500000000000000009999123100000010000000000000BRVIIAACNOR7101
012023030202SMFT3       010SMART FIT   ON      NM   R$  000000000149100000000015200000000001470000000000150000000000014880000000001488000000000148904533000000000000990800000000001486254900000000000000009999123100000010000000000000BRSMFTACNOR1109
012023030202SMTO3       010SAO MARTINHOON      NM   R$  000000000274900000000028350000000002722000000000280200000000028030000000002799000000000280315366000000000002654800000000007439173800000000000000009999123100000010000000000000BRSMTOACNOR3123
012023030202SNSY3       010SANSUY      ON           R$  000000000041400000000004140000000000414000000000041400000000004140000000000352000000000039900001000000000000000100000000000000041400000000000000009999123100000010000000000000BRSNSYACNOR2113
012023030202SNSY5       010SANSUY      PNA          R$  000000000028200000000002940000000000282000000000028700000000002940000000000210000000000029400006000000000000000700000000000000201100000000000000009999123100000010000000000000BRSNSYACNPA5111
012023030202SOJA3       010BOA SAFRA   ON      NM   R$  000000000122000000000012620000000001210000000000123900000000012530000000001243000000000125400940000000000000209000000000000258959100000000000000009999123100000010000000000000BRSOJAACNOR9102
012023030202SOMA3       010GRUPO SOMA  ON      NM   R$  000000000083200000000008450000000000802000000000081400000000008050000000000805000000000080626160000000000012595300000000010259040500000000000000009999123100000010000000000000BRSOMAACNOR3101
012023030202SQIA3       010SINQIA      ON      NM   R$  000000000158300000000016270000000001563000000000160400000000016060000000001606000000000160702251000000000000439100000000000704432100000000000000009999123100000010000000000000BRSQIAACNOR6104
012023030202STBP3       010SANTOS BRP  ON      NM   R$  000000000079000000000008180000000000785000000000079600000000007860000000000786000000000078805808000000000002386500000000001900631600000000000000009999123100000010000000000000BRSTBPACNOR3122
012023030202SUZB3       010SUZANO S.A. ON      NM   R$  000000000468100000000047760000000004656000000000469500000000046700000000004667000000000467019255000000000004397500000000020649382800000000000000009999123100000010000000000000BRSUZBACNOR0128
012023030202VAMO3       010VAMOS       ON      NM   R$  000000000134500000000013690000000001335000000000135100000000013500000000001350000000000135109433000000000002309000000000003120276900000000000000009999123100000010000000000000BRVAMOACNOR7103
012023030202VBBR3       010VIBRA       ON      NM   R$  000000000143400000000014620000000001424000000000143900000000014240000000001424000000000142518861000000000012082000000000017394893800000000000000009999123100000010000000000000BRVBBRACNOR1104
012023030202SBFG3       010GRUPO SBF   ON      NM   R$  000000000079400000000008450000000000794000000000082100000000008150000000000810000000000081506428000000000001592200000000001307889100000000000000009999123100000010000000000000BRSBFGACNOR1101
012023030202SBSP3       010SABESP      ON      NM   R$  000000000518500000000053040000000005169000000000523000000000051870000000005187000000000518808915000000000001960400000000010253812400000000000000009999123100000010000000000000BRSBSPACNOR5159
012023030202SCAR3       010SAO CARLOS  ON      NM   R$  000000000119600000000012740000000001190000000000123000000000012740000000001251000000000127900115000000000000751200000000000924213700000000000000009999123100000010000000000000BRSCARACNOR7130
012023030202SEER3       010SER EDUCA   ON      NM   R$  000000000035400000000003600000000000348000000000035300000000003530000000000353000000000035502701000000000000629400000000000222663200000000000000009999123100000010000000000000BRSEERACNOR5119
012023030202SEQL3       010SEQUOIA LOG ON      NM   R$  000000000031800000000003690000000000302000000000034400000000003540000000000354000000000035710025000000000011951200000000004114398100000000000000009999123100000010000000000000BRSEQLACNOR2100
012023030202SGPS3       010SPRINGS     ON      NM   R$  000000000011700000000001180000000000108000000000011200000000001110000000000111000000000011200238000000000000143100000000000016057800000000000000009999123100000010000000000000BRSGPSACNOR4104
012023030202SHOW3       010TIME FOR FUNON      NM   R$  000000000024700000000002500000000000241000000000024500000000002480000000000245000000000024800285000000000000103100000000000025274200000000000000009999123100000010000000000000BRSHOWACNOR7105
012023030202SHUL4       010SCHULZ      PN  EJ       R$  000000000046500000000004800000000000463000000000047200000000004760000000000476000000000047801410000000000000494100000000000233345000000000000000009999123100000010000000000000BRSHULACNPR4150
012023030202SIMH3       010SIMPAR      ON      NM   R$  000000000069900000000007100000000000686000000000069200000000006890000000000689000000000069109069000000000005148300000000003565720900000000000000009999123100000010000000000000BRSIMHACNOR0106
012023030202SLCE3       010SLC AGRICOLAON      NM   R$  000000000490100000000049990000000004880000000000491400000000048990000000004898000000000490006391000000000001240800000000006097992300000000000000009999123100000010000000000000BRSLCEACNOR2120
012023030202RSUL4       010RIOSULENSE  PN           R$  000000000578200000000057890000000005518000000000567200000000057890000000005450000000000600000026000000000000003400000000000019286000000000000000009999123100000010000000000000BRRSULACNPR3112
012023030202SANB11      010SANTANDER BRUNT          R$  000000000278000000000028050000000002702000000000272700000000027020000000002702000000000270808350000000000002024100000000005520392700000000000000009999123100000010000000000000BRSANBCDAM13159
012023030202SANB3       010SANTANDER BRON           R$  000000000130000000000013100000000001271000000000128200000000012770000000001271000000000127801845000000000000221200000000000283603800000000000000009999123100000010000000000000BRSANBACNOR8166
012023030202SANB4       010SANTANDER BRPN           R$  000000000148400000000014900000000001443000000000145700000000014510000000001444000000000145101848000000000000284200000000000414320900000000000000009999123100000010000000000000BRSANBACNPR5166
012023030202SAPR11      010SANEPAR     UNT     N2   R$  000000000171900000000017360000000001687000000000170900000000016940000000001693000000000169402944000000000000813700000000001391140400000000000000009999123100000010000000000000BRSAPRCDAM13115
012023030202SAPR3       010SANEPAR     ON      N2   R$  000000000032800000000003290000000000322000000000032500000000003240000000000322000000000032400490000000000000219600000000000071450200000000000000009999123100000010000000000000BRSAPRACNOR9156
012023030202SAPR4       010SANEPAR     PN      N2   R$  000000000035000000000003500000000000342000000000034600000000003420000000000342000000000034303058000000000002062500000000000713940200000000000000009999123100000010000000000000BRSAPRACNPR6156
012023030202ROMI3       010ROMI        ON      NM   R$  000000000163200000000017060000000001626000000000167200000000016850000000001665000000000168503167000000000000613900000000001026973300000000000000009999123100000010000000000000BRROMIACNOR8187
012023030202RRRP3       0103R PETROLEUMON      NM   R$  000000000329300000000033890000000003122000000000327200000000031290000000003129000000000313047970000000000014905900000000048779573900000000000000009999123100000010000000000000BRRRRPACNOR5100
012023030202VALE3       010VALE        ON      NM   R$  000000000892000000000090140000000008842000000000891200000000089000000000008898000000000890059470000000000021740900000000193756373600000000000000009999123100000010000000000000BRVALEACNOR0206
012023030202WHRL3       010WHIRLPOOL   ON           R$  000000000044700000000004540000000000444000000000044900000000004540000000000445000000000045500009000000000000000900000000000000404600000000000000009999123100000010000000000000BRWHRLACNOR5127
012023030202WHRL4       010WHIRLPOOL   PN           R$  000000000047700000000004800000000000430000000000045300000000004410000000000440000000000044500122000000000000051600000000000023403900000000000000009999123100000010000000000000BRWHRLACNPR2127
012023030202WIZC3       010WIZ CO      ON      NM   R$  000000000066800000000006790000000000652000000000066300000000006560000000000656000000000065701715000000000000586800000000000389617800000000000000009999123100000010000000000000BRWIZCACNOR5100
012023030202YDUQ3       010YDUQS PART  ON      NM   R$  000000000068000000000006970000000000669000000000068100000000006690000000000668000000000067210522000000000003788700000000002580140000000000000000009999123100000010000000000000BRYDUQACNOR3103
012023030202ZAMP3       010ZAMP S.A.   ON      NM   R$  000000000048000000000005200000000000470000000000048900000000005100000000000510000000000051203761000000000007106600000000003477842800000000000000009999123100000010000000000000BRZAMPACNOR5100
012023030202RCSL4       010RECRUSUL    PN           R$  000000000005400000000000560000000000053000000000005400000000000540000000000054000000000005400690000000000001223000000000000066537500000000000000009999123100000010000000000000BRRCSLACNPR1132
012023030202RDNI3       010RNI         ON      NM   R$  000000000059800000000006240000000000595000000000060200000000005970000000000597000000000061400037000000000000010900000000000006565200000000000000009999123100000010000000000000BRRDNIACNOR9115
012023030202RDOR3       010REDE D OR   ON      NM   R$  000000000244900000000024620000000002368000000000240300000000023680000000002368000000000236917350000000000005596000000000013450476900000000000000009999123100000010000000000000BRRDORACNOR8109
012023030202RECV3       010PETRORECSA  ON      NM   R$  000000000270100000000028600000000002701000000000282100000000028300000000002830000000000283119840000000000004629300000000013063818600000000000000009999123100000010000000000000BRRECVACNOR3103
012023030202REDE3       010REDE ENERGIAON           R$  000000000053200000000005360000000000532000000000053300000000005360000000000536000000000055200002000000000000000300000000000000160000000000000000009999123100000010000000000000BRREDEACNOR7122
012023030202RENT3       010LOCALIZA    ON      NM   R$  000000000531600000000054530000000005268000000000533700000000053140000000005312000000000531425575000000000009436000000000050361272800000000000000009999123100000010000000000000BRRENTACNOR4190
012023030202UNIP3       010UNIPAR      ON           R$  000000000752800000000075920000000007490000000000754000000000075350000000007517000000000758200100000000000000017100000000000128941000000000000000009999123100000010000000000000BRUNIPACNOR7202
012023030202UNIP5       010UNIPAR      PNA          R$  000000000864400000000086440000000008644000000000864400000000086440000000008644000000000879800001000000000000000100000000000000864400000000000000009999123100000010000000000000BRUNIPACNPA0204
012023030202UNIP6       010UNIPAR      PNB          R$  000000000795800000000080560000000007934000000000800800000000080140000000008014000000000802000990000000000000154200000000001234895300000000000000009999123100000010000000000000BRUNIPACNPB8202
012023030202USIM3       010USIMINAS    ON      N1   R$  000000000075700000000007610000000000741000000000074700000000007410000000000741000000000074500754000000000000128800000000000096308800000000000000009999123100000010000000000000BRUSIMACNOR3165
012023030202USIM5       010USIMINAS    PNA     N1   R$  000000000071700000000007170000000000702000000000070800000000007100000000000710000000000071111974000000000008194900000000005809426800000000000000009999123100000010000000000000BRUSIMACNPA6167
012023030202AALR3       010ALLIAR      ON      NM   R$  000000000208600000000020870000000002049000000000205900000000020640000000002060000000000206401033000000000000209200000000000430824100000000000000009999123100000010000000000000BRAALRACNOR6102
012023030202ABCB4       010ABC BRASIL  PN      N2   R$  000000000181200000000018510000000001806000000000183200000000018140000000001813000000000181404935000000000000949200000000001739159700000000000000009999123100000010000000000000BRABCBACNPR4143
012023030202ABEV3       010AMBEV S/A   ON           R$  000000000134700000000013540000000001307000000000131800000000013130000000001313000000000131454082000000000047796400000000063013487900000000000000009999123100000010000000000000BRABEVACNOR1126
012023030202MEGA3       010OMEGAENERGIAON      NM   R$  000000000091000000000009140000000000870000000000088500000000008750000000000875000000000087703826000000000001298900000000001150129700000000000000009999123100000010000000000000BRMEGAACNOR9101
012023030202MELK3       010MELNICK     ON      NM   R$  000000000029400000000002940000000000286000000000029000000000002900000000000290000000000029200822000000000000250800000000000072755400000000000000009999123100000010000000000000BRMELKACNOR8107
012023030202MGEL4       010MANGELS INDLPN           R$  000000000117000000000011700000000001100000000000110900000000011220000000001063000000000112200013000000000000010500000000000011654000000000000000009999123100000010000000000000BRMGELACNPR3147
012023030202PDGR3       010PDG REALT   ON      NM   R$  000000000000900000000000100000000000008000000000000800000000000090000000000008000000000000901079000000000014836100000000000133284900000000000000009999123100000010000000000000BRPDGRACNOR8116
012023030202PDTC3       010PADTEC      ON      NM   R$  000000000023000000000002350000000000226000000000023100000000002300000000000229000000000023200144000000000000017200000000000003979400000000000000009999123100000010000000000000BRPDTCACNOR3100
012023030202PETR3       010PETROBRAS   ON      N2   R$  000000000289400000000029180000000002778000000000283900000000027960000000002796000000000279934693000000000016485500000000046814830400000000000000009999123100000010000000000000BRPETRACNOR9198
012023030202PETR4       010PETROBRAS   PN      N2   R$  000000000254200000000025670000000002437000000000249500000000024640000000002464000000000246572766000000000124516200000000310679393400000000000000009999123100000010000000000000BRPETRACNPR6205
012023030202CMIN3       010CSNMINERACAOON      N2   R$  000000000048000000000004880000000000477000000000048300000000004870000000000486000000000048707714000000000008244100000000003989621200000000000000009999123100000010000000000000BRCMINACNOR2106
012023030202COCE5       010COELCE      PNA          R$  000000000440200000000045980000000004400000000000440700000000045980000000004485000000000459800232000000000000328500000000001447873300000000000000009999123100000010000000000000BRCOCEACNPA3145
012023030202COGN3       010COGNA ON    ON      NM   R$  000000000020000000000002030000000000196000000000019900000000001960000000000196000000000019708626000000000016405300000000003266262500000000000000009999123100000010000000000000BRCOGNACNOR2103
012023030202ELMD3       010ELETROMIDIA ON      NM   R$  000000000122400000000012250000000001176000000000118700000000011850000000001185000000000118900742000000000000119400000000000141765500000000000000009999123100000010000000000000BRELMDACNOR3100
012023030202EMAE4       010EMAE        PN           R$  000000000485000000000049000000000004789000000000484600000000048690000000004801000000000490000016000000000000002000000000000009692400000000000000009999123100000010000000000000BREMAEACNPR1121
012023030202EMBR3       010EMBRAER     ON      NM   R$  000000000169100000000017430000000001685000000000171800000000017380000000001738000000000173915092000000000008673400000000014901753500000000000000009999123100000010000000000000BREMBRACNOR4190
012023030202ENAT3       010ENAUTA PART ON      NM   R$  000000000131700000000013840000000001271000000000131700000000012750000000001274000000000127610674000000000002542400000000003350321300000000000000009999123100000010000000000000BRENATACNOR0103
012023030202ENBR3       010ENERGIAS BR ON      NM   R$  000000000233200000000023420000000002246000000000227600000000022520000000002252000000000225357696000000000041580400000000094639227400000000000000009999123100000010000000000000BRENBRACNOR2134
012023030202ITUB3       010ITAUUNIBANCOON  EJ  N1   R$  000000000214700000000021640000000002089000000000211900000000020940000000002091000000000209401408000000000000569200000000001206521900000000000000009999123100000010000000000000BRITUBACNOR4315
012023030202ITUB4       010ITAUUNIBANCOPN  EJ  N1   R$  000000000249000000000025200000000002404000000000245200000000024180000000002418000000000241969231000000000046105200000000113087832900000000000000009999123100000010000000000000BRITUBACNPR1315
012023030202AERI3       010AERIS       ON      NM   R$  000000000011900000000001210000000000114000000000011600000000001140000000000114000000000011505401000000000005368300000000000626241900000000000000009999123100000010000000000000BRAERIACNOR4101
012023030202AESB3       010AES BRASIL  ON      NM   R$  000000000100000000000010350000000001000000000000101300000000010000000000001000000000000100107781000000000003306300000000003350846100000000000000009999123100000010000000000000BRAESBACNOR7105
012023030202AFLT3       010AFLUENTE T  ON           R$  000000000090000000000009000000000000900000000000090000000000009000000000000889000000000091500001000000000000000100000000000000090000000000000000009999123100000010000000000000BRAFLTACNOR1119
012023030202AGRO3       010BRASILAGRO  ON      NM   R$  000000000257400000000026900000000002574000000000264100000000026160000000002616000000000261704152000000000000656200000000001733570100000000000000009999123100000010000000000000BRAGROACNOR7113
012023030202AGXY3       010AGROGALAXY  ON      NM   R$  000000000092500000000009290000000000847000000000088400000000008470000000000847000000000085400203000000000000249000000000000220307900000000000000009999123100000010000000000000BRAGXYACNOR4101
012023030202ALLD3       010ALLIED      ON      NM   R$  000000000045300000000004650000000000453000000000045900000000004530000000000453000000000046100049000000000000020900000000000009594800000000000000009999123100000010000000000000BRALLDACNOR3104
012023030202ALPA3       010ALPARGATAS  ON      N1   R$  000000000094900000000009630000000000945000000000095100000000009450000000000920000000000096100021000000000000007900000000000007519500000000000000009999123100000010000000000000BRALPAACNOR0231
012023030202ALPA4       010ALPARGATAS  PN      N1   R$  000000000091000000000009500000000000907000000000093600000000009330000000000933000000000093612238000000000003386700000000003172088900000000000000009999123100000010000000000000BRALPAACNPR7231
012023030202BBDC3       010BRADESCO    ON  EJ  N1   R$  000000000115900000000011680000000001142000000000115200000000011420000000001141000000000114210229000000000006979100000000008044168000000000000000009999123100000010000000000000BRBBDCACNOR1753
012023030202BBDC4       010BRADESCO    PN  EJ  N1   R$  000000000129200000000013090000000001279000000000129200000000012790000000001278000000000127936464000000000032975000000000042616624800000000000000009999123100000010000000000000BRBBDCACNPR8753
012023030202BPAC11      010BTGP BANCO  UNT     N2   R$  000000000195400000000019870000000001911000000000194200000000019170000000001917000000000191827378000000000018034700000000035025545800000000000000009999123100000010000000000000BRBPACUNT006115
012023030202BPAC3       010BTGP BANCO  ON      N2   R$  000000000103100000000010320000000001012000000000102000000000010150000000001002000000000102000022000000000000004800000000000004897400000000000000009999123100000010000000000000BRBPACACNOR7130
012023030202BPAC5       010BTGP BANCO  PNA     N2   R$  000000000047800000000004990000000000478000000000048800000000004820000000000482000000000049400021000000000000006200000000000003027400000000000000009999123100000010000000000000BRBPACACNPA0130
012023030202CRIV3       010ALFA FINANC ON           R$  000000000050000000000005000000000000500000000000050000000000005000000000000448000000000051500001000000000000000600000000000000300000000000000000009999123100000010000000000000BRCRIVACNOR4195
012023030202CRPG5       010CRISTAL     PNA          R$  000000000247200000000027150000000002472000000000259600000000026400000000002600000000000264000068000000000000010100000000000026219900000000000000009999123100000010000000000000BRCRPGACNPA3116
012023030202CRPG6       010CRISTAL     PNB          R$  000000000270000000000027000000000002700000000000270000000000027000000000002601000000000274000001000000000000000100000000000000270000000000000000009999123100000010000000000000BRCRPGACNPB1116
012023030202CSAN3       010COSAN       ON      NM   R$  000000000148000000000015190000000001469000000000148900000000014720000000001471000000000147220483000000000008807700000000013121905200000000000000009999123100000010000000000000BRCSANACNOR6123
012023030202CSED3       010CRUZEIRO EDUON      NM   R$  000000000028100000000002900000000000275000000000028100000000002820000000000282000000000028801441000000000000697000000000000196492800000000000000009999123100000010000000000000BRCSEDACNOR9102
012023030202CSMG3       010COPASA      ON      NM   R$  000000000150700000000015170000000001491000000000150100000000014950000000001494000000000149503945000000000000911800000000001369488900000000000000009999123100000010000000000000BRCSMGACNOR5166
012023030202ESPA3       010ESPACOLASER ON      NM   R$  000000000012100000000001250000000000118000000000012100000000001180000000000118000000000012001689000000000002021200000000000245043800000000000000009999123100000010000000000000BRESPAACNOR7103
012023030202EUCA3       010EUCATEX     ON      N1   R$  000000000102000000000010390000000000991000000000101800000000010030000000001002000000000103300025000000000000003800000000000003871700000000000000009999123100000010000000000000BREUCAACNOR1155
012023030202EUCA4       010EUCATEX     PN      N1   R$  000000000097800000000009990000000000950000000000096400000000009680000000000942000000000096800108000000000000039100000000000037710200000000000000009999123100000010000000000000BREUCAACNPR8042
012023030202EVEN3       010EVEN        ON      NM   R$  000000000044100000000004490000000000433000000000044100000000004390000000000439000000000044302941000000000000639800000000000282288100000000000000009999123100000010000000000000BREVENACNOR8116
012023030202EZTC3       010EZTEC       ON      NM   R$  000000000123500000000012400000000001200000000000121700000000012010000000001201000000000120308490000000000002388600000000002908499900000000000000009999123100000010000000000000BREZTCACNOR0119
012023030202FESA4       010FERBASA     PN      N1   R$  000000000584700000000059300000000005730000000000586100000000058920000000005861000000000589201302000000000000239200000000001402115500000000000000009999123100000010000000000000BRFESAACNPR5078
012023030202ITSA3       010ITAUSA      ON  EJ  N1   R$  000000000083200000000008440000000000814000000000083000000000008140000000000814000000000082100412000000000000122000000000000101335100000000000000009999123100000010000000000000BRITSAACNOR0426
012023030202ITSA4       010ITAUSA      PN  EJ  N1   R$  000000000081400000000008260000000000793000000000080600000000007970000000000797000000000079830240000000000026631900000000021480838800000000000000009999123100000010000000000000BRITSAACNPR7426
012023030202MGLU3       010MAGAZ LUIZA ON      NM   R$  000000000032400000000003290000000000311000000000031900000000003150000000000314000000000031540281000000000094544200000000030185245100000000000000009999123100000010000000000000BRMGLUACNOR2120
012023030202RAIZ4       010RAIZEN      PN      N2   R$  000000000030200000000003040000000000292000000000029800000000002920000000000292000000000029313979000000000021864000000000006516757500000000000000009999123100000010000000000000BRRAIZACNPR6105
012023030202RANI3       010IRANI       ON      NM   R$  000000000084800000000008670000000000842000000000085600000000008620000000000860000000000086204442000000000001255300000000001075693500000000000000009999123100000010000000000000BRRANIACNOR5064
012023030202RAPT3       010RANDON PART ON      N1   R$  000000000077600000000007790000000000749000000000075400000000007500000000000749000000000075000115000000000000029600000000000022341100000000000000009999123100000010000000000000BRRAPTACNOR7160
012023030202RAPT4       010RANDON PART PN      N1   R$  000000000077800000000007840000000000748000000000076500000000007670000000000767000000000077008901000000000004138900000000003167428100000000000000009999123100000010000000000000BRRAPTACNPR4160
012023030202RCSL3       010RECRUSUL    ON           R$  000000000025800000000002810000000000201000000000022700000000002230000000000223000000000022304000000000000001950500000000000443959000000000000000009999123100000010000000000000BRRCSLACNOR4132
012023030202TPIS3       010TRIUNFO PARTON      NM   R$  000000000008400000000000840000000000081000000000008200000000000840000000000083000000000008400136000000000000279800000000000023043100000000000000009999123100000010000000000000BRTPISACNOR8117
012023030202CCRO3       010CCR SA      ON      NM   R$  000000000109000000000010950000000001075000000000108300000000010760000000001075000000000107610641000000000004035000000000004371856800000000000000009999123100000010000000000000BRCCROACNOR2142
012023030202CEAB3       010CEA MODAS   ON      NM   R$  000000000023200000000002340000000000215000000000022400000000002180000000000218000000000022007931000000000010060700000000002254346300000000000000009999123100000010000000000000BRCEABACNOR1101
012023030202LIGT3       010LIGHT S/A   ON      NM   R$  000000000023800000000002450000000000228000000000023600000000002300000000000230000000000023104394000000000004057700000000000959895900000000000000009999123100000010000000000000BRLIGTACNOR2124
012023030202LJQQ3       010QUERO-QUERO ON      NM   R$  000000000038000000000003870000000000363000000000037500000000003780000000000378000000000038203194000000000003161200000000001187175100000000000000009999123100000010000000000000BRLJQQACNOR5103
012023030202LOGG3       010LOG COM PROPON      NM   R$  000000000141100000000014370000000001393000000000140500000000013940000000001394000000000140001178000000000000259400000000000364690400000000000000009999123100000010000000000000BRLOGGACNOR7106
012023030202LOGN3       010LOG-IN      ON      NM   R$  000000000313100000000031480000000003050000000000309200000000030500000000003050000000000307000509000000000000071900000000000222333200000000000000009999123100000010000000000000BRLOGNACNOR3105
012023030202LPSB3       010LOPES BRASILON      NM   R$  000000000017700000000001800000000000174000000000017600000000001740000000000174000000000017600156000000000000063800000000000011276900000000000000009999123100000010000000000000BRLPSBACNOR0112
012023030202LREN3       010LOJAS RENNERON      NM   R$  000000000179000000000018480000000001775000000000181700000000018100000000001808000000000181028852000000000013492200000000024519622300000000000000009999123100000010000000000000BRLRENACNOR1215
012023030202ENJU3       010ENJOEI      ON      NM   R$  000000000007200000000000760000000000071000000000007200000000000710000000000071000000000007300591000000000000924700000000000066816700000000000000009999123100000010000000000000BRENJUACNOR9100
012023030202EPAR3       010EMBPAR S/A  ON           R$  000000000096400000000009840000000000924000000000095300000000009840000000000940000000000098400006000000000000000900000000000000857900000000000000009999123100000010000000000000BREPARACNOR9101
012023030202EQPA3       010EQTL PARA   ON           R$  000000000057100000000005840000000000571000000000057800000000005790000000000575000000000058000012000000000000002100000000000001215000000000000000009999123100000010000000000000BREQPAACNOR1108
012023030202EQTL3       010EQUATORIAL  ON      NM   R$  000000000250000000000025430000000002492000000000251300000000024940000000002494000000000249528666000000000008199300000000020607533500000000000000009999123100000010000000000000BREQTLACNOR0128
012023030202IFCM3       010INFRACOMM   ON      NM   R$  000000000018400000000002040000000000183000000000019400000000001960000000000195000000000019601310000000000000379200000000000073672900000000000000009999123100000010000000000000BRIFCMACNOR8101
012023030202IGTI11      010IGUATEMI S.AUNT     N1   R$  000000000183500000000018990000000001833000000000187400000000018600000000001857000000000186016712000000000002663900000000004994769000000000000000009999123100000010000000000000BRIGTICDAM16102
012023030202IGTI3       010IGUATEMI S.AON      N1   R$  000000000023500000000002400000000000235000000000023700000000002380000000000238000000000024000172000000000000042500000000000010097700000000000000009999123100000010000000000000BRIGTIACNOR8102
012023030202IGTI4       010IGUATEMI S.APN      N1   R$  000000000081600000000008490000000000799000000000080800000000007990000000000799000000000085000119000000000000020800000000000016812100000000000000009999123100000010000000000000BRIGTIACNPR5102
012023030202INEP3       010INEPAR      ON           R$  000000000012500000000001300000000000121000000000012400000000001230000000000123000000000012400553000000000001031600000000000128170000000000000000009999123100000010000000000000BRINEPACNOR1142
012023030202MATD3       010MATER DEI   ON      NM   R$  000000000083300000000008330000000000797000000000081000000000008100000000000810000000000081803516000000000000792100000000000642097900000000000000009999123100000010000000000000BRMATDACNOR4102
012023030202MBLY3       010MOBLY       ON      NM   R$  000000000031500000000003230000000000285000000000029200000000002850000000000285000000000028601517000000000001319300000000000385662400000000000000009999123100000010000000000000BRMBLYACNOR5100
012023030202MDIA3       010M.DIASBRANCOON      NM   R$  000000000335000000000034060000000003224000000000330600000000032460000000003245000000000324609373000000000001745900000000005772260800000000000000009999123100000010000000000000BRMDIAACNOR7128
012023030202MDNE3       010MOURA DUBEUXON      NM   R$  000000000049700000000005010000000000484000000000049200000000004920000000000489000000000049200321000000000000128200000000000063182200000000000000009999123100000010000000000000BRMDNEACNOR9100
012023030202MEAL3       010IMC S/A     ON      NM   R$  000000000019900000000002010000000000189000000000019600000000001960000000000195000000000019602690000000000001100800000000000216355600000000000000009999123100000010000000000000BRMEALACNOR9105
012023030202CPFE3       010CPFL ENERGIAON      NM   R$  000000000302800000000030970000000002979000000000304200000000029860000000002986000000000299315179000000000003851800000000011718681400000000000000009999123100000010000000000000BRCPFEACNOR0134
012023030202CPLE11      010COPEL       UNT     N2   R$  000000000343300000000034650000000003397000000000341900000000034050000000003390000000000341100967000000000000146900000000000502364100000000000000009999123100000010000000000000BRCPLECDAM13105
012023030202CPLE3       010COPEL       ON      N2   R$  000000000062700000000006350000000000623000000000062800000000006260000000000625000000000062702269000000000001044900000000000656400500000000000000009999123100000010000000000000BRCPLEACNOR8147
012023030202CPLE6       010COPEL       PNB     N2   R$  000000000070300000000007110000000000696000000000070100000000006970000000000697000000000070009546000000000008298300000000005818693200000000000000009999123100000010000000000000BRCPLEACNPB9144
012023030202CRFB3       010CARREFOUR BRON      NM   R$  000000000128700000000013240000000001263000000000129400000000012760000000001276000000000127723927000000000018147700000000023489467200000000000000009999123100000010000000000000BRCRFBACNOR2114
012023030202ENEV3       010ENEVA       ON      NM   R$  000000000111500000000011380000000001105000000000111600000000011120000000001111000000000111211669000000000005668900000000006326892400000000000000009999123100000010000000000000BRENEVACNOR8105
012023030202ENGI11      010ENERGISA    UNT     N2   R$  000000000385800000000039870000000003782000000000387300000000037930000000003791000000000379309662000000000003816200000000014783190200000000000000009999123100000010000000000000BRENGICDAM16132
012023030202ENGI3       010ENERGISA    ON      N2   R$  000000000132300000000013350000000001221000000000128600000000012550000000001255000000000126500092000000000000013400000000000017242200000000000000009999123100000010000000000000BRENGIACNOR0142
012023030202ENGI4       010ENERGISA    PN      N2   R$  000000000065900000000006630000000000634000000000064800000000006430000000000631000000000064300098000000000000020500000000000013287700000000000000009999123100000010000000000000BRENGIACNPR7138
012023030202INEP4       010INEPAR      PN           R$  000000000009700000000000980000000000094000000000009500000000000950000000000095000000000009600239000000000000386100000000000036963000000000000000009999123100000010000000000000BRINEPACNPR8142
012023030202INTB3       010INTELBRAS   ON      NM   R$  000000000289500000000029790000000002895000000000294200000000029050000000002905000000000291704103000000000000852700000000002508876800000000000000009999123100000010000000000000BRINTBACNOR9105
012023030202IRBR3       010IRBBRASIL REON      NM   R$  000000000189100000000018980000000001827000000000184700000000018450000000001844000000000184604001000000000001915700000000003539183600000000000000009999123100000010000000000000BRIRBRACNOR4110
012023030202LUXM4       010TREVISA     PN           R$  000000000815000000000081500000000008140000000000814300000000081400000000008140000000000839600003000000000000000300000000000002443000000000000000009999123100000010000000000000BRLUXMACNPR4050
012023030202LVTC3       010WDC NETWORKSON      NM   R$  000000000069800000000007110000000000645000000000066500000000006470000000000647000000000065500824000000000000155700000000000103648200000000000000009999123100000010000000000000BRLVTCACNOR4101
012023030202LWSA3       010LOCAWEB     ON      NM   R$  000000000044600000000004700000000000441000000000046000000000004580000000000458000000000045912813000000000008635100000000003978706700000000000000009999123100000010000000000000BRLWSAACNOR8102
012023030202ORVR3       010ORIZON      ON      NM   R$  000000000379000000000038590000000003696000000000376200000000037080000000003708000000000371401070000000000000333400000000001254524700000000000000009999123100000010000000000000BRORVRACNOR0101
012023030202OSXB3       010OSX BRASIL  ON      NM   R$  000000000059600000000006110000000000595000000000059700000000005950000000000595000000000061000010000000000000001300000000000000776400000000000000009999123100000010000000000000BROSXBACNOR8109
012023030202TRAD3       010TC          ON      NM   R$  000000000013400000000001360000000000129000000000013200000000001310000000000131000000000013400499000000000000725900000000000096040000000000000000009999123100000010000000000000BRTRADACNOR3101
012023030202TRIS3       010TRISUL      ON      NM   R$  000000000033500000000003360000000000314000000000032200000000003140000000000314000000000031801640000000000000971700000000000313804500000000000000009999123100000010000000000000BRTRISACNOR4115
012023030202TRPL3       010TRAN PAULISTON      N1   R$  000000000283600000000028810000000002835000000000285400000000028810000000002855000000000289900008000000000000000800000000000002283600000000000000009999123100000010000000000000BRTRPLACNOR4184
012023030202TRPL4       010TRAN PAULISTPN      N1   R$  000000000219400000000022140000000002164000000000218700000000021740000000002173000000000217409142000000000002216500000000004848094600000000000000009999123100000010000000000000BRTRPLACNPR1184
012023030202TTEN3       0103TENTOS     ON      NM   R$  000000000124700000000012740000000001232000000000124700000000012340000000001233000000000123405737000000000000976300000000001217739800000000000000009999123100000010000000000000BRTTENACNOR0102
012023030202TUPY3       010TUPY        ON      NM   R$  000000000269000000000027250000000002642000000000267100000000026420000000002642000000000265202702000000000000459000000000001226431200000000000000009999123100000010000000000000BRTUPYACNOR1180
012023030202ODPV3       010ODONTOPREV  ON      NM   R$  000000000110600000000011120000000001026000000000107400000000011030000000001103000000000110410568000000000003316100000000003563949600000000000000009999123100000010000000000000BRODPVACNOR4193
012023030202OFSA3       010OUROFINO S/AON      NM   R$  000000000255600000000025560000000002515000000000252500000000025220000000002515000000000252400015000000000000002000000000000005050300000000000000009999123100000010000000000000BROFSAACNOR7115
012023030202OIBR3       010OI          ON      N1   R$  000000000018400000000001940000000000159000000000017400000000001590000000000158000000000015909224000000000030780900000000005365045900000000000000009999123100000010000000000000BROIBRACNOR1110
012023030202OIBR4       010OI          PN      N1   R$  000000000032600000000003460000000000309000000000032700000000003090000000000309000000000031000663000000000000324200000000000106164000000000000000009999123100000010000000000000BROIBRACNPR8109
012023030202ONCO3       010ONCOCLINICASON      NM   R$  000000000076400000000007890000000000744000000000077000000000007770000000000777000000000078003165000000000005221800000000004021719200000000000000009999123100000010000000000000BRONCOACNOR6100
012023030202OPCT3       010OCEANPACT   ON      NM   R$  000000000028800000000002880000000000263000000000027100000000002630000000000263000000000026601143000000000000636500000000000173047600000000000000009999123100000010000000000000BROPCTACNOR0100
012023030202BGIP4       010BANESE      PN  EJ       R$  000000000175600000000017560000000001630000000000167800000000016520000000001651000000000169000048000000000000013300000000000022328200000000000000009999123100000010000000000000BRBGIPACNPR8203
012023030202UCAS3       010UNICASA     ON      NM   R$  000000000023600000000002470000000000236000000000024400000000002420000000000241000000000024700030000000000000015900000000000003880200000000000000009999123100000010000000000000BRUCASACNOR1112
012023030202UGPA3       010ULTRAPAR    ON  ED  NM   R$  000000000129900000000013160000000001283000000000129500000000012890000000001288000000000128915895000000000008863800000000011481584500000000000000009999123100000010000000000000BRUGPAACNOR8153
012023030202VITT3       010VITTIA      ON      NM   R$  000000000109800000000011030000000001049000000000106600000000010500000000001050000000000106000682000000000000297700000000000317495500000000000000009999123100000010000000000000BRVITTACNOR4103
012023030202VIVA3       010VIVARA S.A. ON      NM   R$  000000000209300000000021220000000002040000000000206800000000020550000000002046000000000205504023000000000000638900000000001321585400000000000000009999123100000010000000000000BRVIVAACNOR0105
012023030202CAMB3       010CAMBUCI     ON           R$  000000000062000000000006450000000000600000000000061600000000006000000000000600000000000060900124000000000000054500000000000033619500000000000000009999123100000010000000000000BRCAMBACNOR4123
012023030202CAML3       010CAMIL       ON  EJ  NM   R$  000000000078000000000007840000000000763000000000077400000000007630000000000763000000000076802582000000000000588900000000000455949700000000000000009999123100000010000000000000BRCAMLACNOR3123
012023030202CASH3       010MELIUZ      ON      NM   R$  000000000007800000000000870000000000078000000000008300000000000810000000000081000000000008206861000000000042240200000000003519467500000000000000009999123100000010000000000000BRCASHACNOR8102
012023030202CBAV3       010CBA         ON      NM   R$  000000000107000000000010890000000001062000000000107400000000010750000000001073000000000107506695000000000001563700000000001680787600000000000000009999123100000010000000000000BRCBAVACNOR5102
012023030202HAGA4       010HAGA S/A    PN           R$  000000000008700000000000920000000000081000000000008300000000000910000000000087000000000008900069000000000000090600000000000007566200000000000000009999123100000010000000000000BRHAGAACNPR4103
012023030202HAPV3       010HAPVIDA     ON      NM   R$  000000000031200000000003150000000000284000000000029800000000002920000000000292000000000029382490000000000227342500000000067968205600000000000000009999123100000010000000000000BRHAPVACNOR4112
012023030202EALT4       010ACO ALTONA  PN           R$  000000000070100000000007090000000000699000000000070300000000007080000000000700000000000070800015000000000000006000000000000004218100000000000000009999123100000010000000000000BREALTACNPR1136
012023030202ECOR3       010ECORODOVIAS ON      NM   R$  000000000040900000000004110000000000399000000000040400000000003990000000000399000000000040108589000000000003815200000000001544238200000000000000009999123100000010000000000000BRECORACNOR8118
012023030202EGIE3       010ENGIE BRASILON      NM   R$  000000000392900000000040130000000003915000000000396300000000039390000000003932000000000393907444000000000001663600000000006594030300000000000000009999123100000010000000000000BREGIEACNOR9122
012023030202EKTR3       010ELEKTRO     ON           R$  000000000390000000000039000000000003900000000000390000000000039000000000003350000000000380000002000000000000000200000000000000780000000000000000009999123100000010000000000000BREKTRACNOR0155
012023030202EKTR4       010ELEKTRO     PN           R$  000000000378900000000037890000000003789000000000378900000000037890000000003650000000000384400001000000000000000100000000000000378900000000000000009999123100000010000000000000BREKTRACNPR7155
012023030202RADL3       010RAIADROGASILON      NM   R$  000000000225100000000022670000000002209000000000224400000000022370000000002236000000000223713859000000000003796200000000008520592600000000000000009999123100000010000000000000BRRADLACNOR0147
012023030202RAIL3       010RUMO S.A.   ON      NM   R$  000000000174200000000017930000000001730000000000176800000000017770000000001776000000000177727579000000000012680600000000022419679700000000000000009999123100000010000000000000BRRAILACNOR9103
012023030202TAEE4       010TAESA       PN      N2   R$  000000000119000000000012080000000001183000000000119300000000011910000000001186000000000119101511000000000000412000000000000491680500000000000000009999123100000010000000000000BRTAEEACNPR6141
012023030202TASA3       010TAURUS ARMASON      N2   R$  000000000141300000000014550000000001382000000000141600000000013820000000001380000000000138300223000000000000045900000000000065008100000000000000009999123100000010000000000000BRTASAACNOR7101
012023030202TASA4       010TAURUS ARMASPN      N2   R$  000000000144800000000014670000000001394000000000143300000000013970000000001397000000000139902618000000000000682600000000000978448600000000000000009999123100000010000000000000BRTASAACNPR4101
012023030202TCSA3       010TECNISA     ON      NM   R$  000000000023100000000002370000000000230000000000023200000000002300000000000230000000000023300103000000000000041100000000000009544600000000000000009999123100000010000000000000BRTCSAACNOR3112
012023030202TECN3       010TECHNOS     ON      NM   R$  000000000024700000000002580000000000238000000000024700000000002490000000000247000000000024900639000000000000614900000000000152452500000000000000009999123100000010000000000000BRTECNACNOR6108
012023030202TELB3       010TELEBRAS    ON           R$  000000000138600000000014150000000001363000000000138200000000014150000000001365000000000143800011000000000000001300000000000001797300000000000000009999123100000010000000000000BRTELBACNOR2140
012023030202TELB4       010TELEBRAS    PN           R$  000000000086400000000008640000000000840000000000085200000000008400000000000840000000000084900021000000000000002400000000000002046200000000000000009999123100000010000000000000BRTELBACNPR9140
012023030202TEND3       010TENDA       ON      NM   R$  000000000045600000000004880000000000445000000000047400000000004850000000000483000000000048506808000000000003953800000000001875474000000000000000009999123100000010000000000000BRTENDACNOR4111
012023030202TFCO4       010TRACK FIELD PN      N2   R$  000000000102400000000010860000000001019000000000103700000000010650000000001052000000000106500399000000000000224100000000000232518100000000000000009999123100000010000000000000BRTFCOACNPR8106
012023030202TGMA3       010TEGMA       ON      NM   R$  000000000175400000000018190000000001681000000000170600000000016880000000001685000000000168901077000000000000175900000000000300129900000000000000009999123100000010000000000000BRTGMAACNOR7140
012023030202TIMS3       010TIM         ON      NM   R$  000000000122500000000012430000000001208000000000122100000000012080000000001208000000000120912630000000000004559100000000005568795500000000000000009999123100000010000000000000BRTIMSACNOR5109
012023030202TOTS3       010TOTVS       ON      NM   R$  000000000270600000000027890000000002706000000000275500000000027470000000002747000000000274915137000000000003756000000000010350175900000000000000009999123100000010000000000000BRTOTSACNOR8142
012023030202PORT3       010WILSON SONS ON      NM   R$  000000000104600000000010460000000000990000000000100500000000010060000000001000000000000100601153000000000000172300000000000173179700000000000000009999123100000010000000000000BRPORTACNOR8103
012023030202POSI3       010POSITIVO TECON      NM   R$  000000000070000000000007140000000000694000000000070500000000007100000000000705000000000071006584000000000001609100000000001134494700000000000000009999123100000010000000000000BRPOSIACNOR9114
012023030202PRIO3       010PETRORIO    ON      NM   R$  000000000336500000000035330000000003350000000000346200000000033960000000003395000000000339667452000000000030384000000000105193750600000000000000009999123100000010000000000000BRPRIOACNOR1104
012023030202PRNR3       010PRINER      ON      NM   R$  000000000075400000000007710000000000725000000000074800000000007630000000000763000000000076800357000000000000116600000000000087244000000000000000009999123100000010000000000000BRPRNRACNOR4108
012023030202PSSA3       010PORTO SEGUROON      NM   R$  000000000261000000000026780000000002599000000000263700000000026240000000002624000000000262508521000000000001561100000000004117921500000000000000009999123100000010000000000000BRPSSAACNOR7150
012023030202PTBL3       010PORTOBELLO  ON      NM   R$  000000000069500000000007040000000000666000000000068000000000006660000000000666000000000066801572000000000000582500000000000396553300000000000000009999123100000010000000000000BRPTBLACNOR8131
012023030202PTNT3       010PETTENATI   ON           R$  000000000090000000000009000000000000871000000000088500000000008710000000000871000000000089100002000000000000000200000000000000177100000000000000009999123100000010000000000000BRPTNTACNOR6041
012023030202PTNT4       010PETTENATI   PN           R$  000000000062500000000006420000000000602000000000061300000000006020000000000602000000000061800034000000000000020700000000000012697500000000000000009999123100000010000000000000BRPTNTACNPR3046
012023030205BZLI11      010FII BRREALTYCI           R$  000000000155000000000015500000000001550000000000155000000000015500000000001550000000000180000001000000000000000001000000000000001550000000000000009999123100000010000000000000BRBZLICTF003100
012023030207TXRX4       010TEX RENAUX  PN           R$  000000000029000000000002900000000000290000000000029000000000002900000000000290000000000030200001000000000000000600000000000000174000000000000000009999123100000010000000000000BRTXRXACNPR0142
012023030208AMER3       010AMERICANAS  ON      NM   R$  000000000009500000000001120000000000093000000000010300000000001060000000000106000000000010711051000000000057234400000000005902131400000000000000009999123100000010000000000000BRAMERACNOR6101
012023030208JFEN3       010JOAO FORTES ON  EG       R$  000000000031200000000003230000000000311000000000031800000000003220000000000322000000000032400022000000000000004200000000000001337400000000000000009999123100000010000000000000BRJFENACNOR0058
012023030208HOOT4       010HOTEIS OTHONPN           R$  000000000011900000000001190000000000115000000000011800000000001150000000000114000000000011700006000000000000001100000000000000130000000000000000009999123100000010000000000000BRHOOTACNPR9015
012023030208NEXP3       010NEXPE       ON      NM   R$  000000000053800000000005380000000000510000000000051900000000005200000000000510000000000052000020000000000000002400000000000001247000000000000000009999123100000010000000000000BRNEXPACNOR0101
012023030208PMAM3       010PARANAPANEMAON      NM   R$  000000000049200000000005000000000000485000000000049300000000004990000000000491000000000049900123000000000000032000000000000015780300000000000000009999123100000010000000000000BRPMAMACNOR3037
012023030208FRTA3       010POMIFRUTAS  ON      NM   R$  000000000023500000000002380000000000232000000000023300000000002380000000000232000000000023800010000000000000002300000000000000537100000000000000009999123100000010000000000000BRFRTAACNOR8103
012023030208SLED3       010SARAIVA LIVRON      N2   R$  000000000070100000000007980000000000701000000000073600000000007490000000000726000000000075300011000000000000002700000000000001989700000000000000009999123100000010000000000000BRSLEDACNOR0159
012023030208SLED4       010SARAIVA LIVRPN      N2   R$  000000000011500000000001150000000000095000000000010200000000001030000000000103000000000011000164000000000000085400000000000008723600000000000000009999123100000010000000000000BRSLEDACNPR7158
012023030208RSID3       010ROSSI RESID ON      NM   R$  000000000029200000000003090000000000289000000000029600000000002960000000000287000000000029700130000000000000061800000000000018341600000000000000009999123100000010000000000000BRRSIDACNOR8120
012023030208RNEW11      010RENOVA      UNT     N2   R$  000000000060900000000006090000000000590000000000059700000000005900000000000580000000000059000044000000000000011000000000000006572900000000000000009999123100000010000000000000BRRNEWCDAM15110
012023030208RNEW3       010RENOVA      ON      N2   R$  000000000019900000000002060000000000194000000000019600000000002060000000000196000000000020600051000000000000009700000000000001904600000000000000009999123100000010000000000000BRRNEWACNOR8110
012023030208RNEW4       010RENOVA      PN      N2   R$  000000000020200000000002030000000000199000000000020000000000001990000000000198000000000020200055000000000000012600000000000002520500000000000000009999123100000010000000000000BRRNEWACNPR5110
012023030208RPMG3       010PET MANGUINHON           R$  000000000016400000000001680000000000164000000000016500000000001680000000000165000000000016800018000000000000013600000000000002257500000000000000009999123100000010000000000000BRRPMGACNOR9194
012023030208ETER3       010ETERNIT     ON      NM   R$  000000000093800000000009570000000000928000000000094200000000009450000000000940000000000094501978000000000000410600000000000387128300000000000000009999123100000010000000000000BRETERACNOR3239
012023030208IGBR3       010IGB S/A     ON           R$  000000000530000000000055490000000005300000000000543800000000055290000000005380000000000555000012000000000000001300000000000007070300000000000000009999123100000010000000000000BRIGBRACNOR7034
012023030208LUPA3       010LUPATECH    ON  ES  NM   R$  000000000050700000000005140000000000483000000000049400000000004880000000000488000000000048901528000000000001036300000000000512528700000000000000009999123100000010000000000000BRLUPAACNOR8110
012023030208TEKA4       010TEKA        PN           R$  000000000173000000000017300000000001730000000000173000000000017300000000001465000000000170000001000000000000000100000000000000173000000000000000009999123100000010000000000000BRTEKAACNPR3140
012023030210RENT9       010LOCALIZA    ON  REC NM   R$  000000000532200000000053230000000005285000000000531700000000052850000000004700000000000545000036000000000000003600000000000019142100000000000000009999123100000010000000000000BRRENTR02OR7189
012023030210LUPA1       010LUPATECH    DIR ORD NM   R$  000000000003200000000000360000000000030000000000003300000000000310000000000030000000000003100386000000000000378900000000000012627000000000000000009999123100000010000000000000BRLUPAD06OR2109
012023030212PATC11      010FII PATRIA  CI  ER       R$  000000000673500000000067500000000006600000000000667700000000067280000000006603000000000672800074000000000000000793000000000005295432000000000000009999123100000010000000000000BRPATCCTF002152
012023030212PATL11      010FII PATR LOGCI  ER       R$  000000000615600000000061560000000006064000000000609300000000060970000000006080000000000609701304000000000000006576000000000040072620000000000000009999123100000010000000000000BRPATLCTF003131
012023030212VLOL11      010FII OLIMPIA CI  ER       R$  000000000934200000000093420000000009341000000000934100000000093420000000009253000000000934100018000000000000000115000000000001074306000000000000009999123100000010000000000000BRVLOLCTF009227
012023030212VOTS11      010FII V MASTERCI  ER       R$  000000000819800000000081990000000008148000000000817800000000081480000000007800000000000814900018000000000000000163000000000001333166000000000000009999123100000010000000000000BRVOTSCTF007155
012023030212VRTA11      010FII FATOR VECI  ER       R$  000000000878400000000088470000000008700000000000877300000000087000000000008700000000000872902809000000000000020901000000000183367738000000000000009999123100000010000000000000BRVRTACTF008245
012023030212VSHO11      010FII VOT SHOPCI  ER       R$  000000000633900000000064990000000006335000000000634900000000063400000000006339000000000634000022000000000000000113000000000000717479000000000000009999123100000010000000000000BRVSHOCTF002146
012023030212VSLH11      010FII VERS CRICI           R$  000000000082000000000008230000000000807000000000081400000000008100000000000809000000000081003516000000000000090257000000000073510429000000000000009999123100000010000000000000BRVSLHCTF008127
012023030212VTLT11      010FII VOT LOG CI  ER       R$  000000000870100000000087490000000008605000000000865800000000086590000000008635000000000865900786000000000000002591000000000022434667000000000000009999123100000010000000000000BRVTLTCTF001157
012023030212VVCO11      010FII V2EDCORPCI           R$  000000000084600000000008900000000000845000000000087800000000008900000000000890000000000089600010000000000000000520000000000000456753000000000000009999123100000010000000000000BRVVCOCTF007100
012023030212CTXT11      010FII C TEXTILCI           R$  000000000113900000000011620000000001139000000000115000000000011390000000001138000000000113900012000000000000000060000000000000069038000000000000009999123100000010000000000000BRCTXTCTF014206
012023030212CVBI11      010FII VBI CRI CI           R$  000000000897000000000089980000000008894000000000894100000000089510000000008951000000000896705215000000000000032939000000000294513201000000000000009999123100000010000000000000BRCVBICTF001150
012023030212CXAG11      010FII CAIXA AGCI  ER       R$  000000000760400000000076470000000007604000000000761100000000076400000000007614000000000764000046000000000000001423000000000010831486000000000000009999123100000010000000000000BRCXAGCTF003113
012023030212CXCE11B     010FII CX CEDAECI  ER  MB   R$  000000000399600000000040440000000003996000000000400400000000040000000000003996000000000400000019000000000000000147000000000000588594000000000000009999123100000010000000000000BRCXCECTF004253
012023030212CXCI11      010FII CAIXA CICI           R$  000000000754500000000076080000000007545000000000754900000000076080000000007531000000000763800030000000000000000559000000000004220142000000000000009999123100000010000000000000BRCXCICTF005111
012023030212CXCO11      010FII CEF CORPCI  ER       R$  000000000682300000000069990000000006776000000000688000000000068530000000006814000000000694000175000000000000001770000000000012179138000000000000009999123100000010000000000000BRCXCOCTF003123
012023030212BARI11      010FII BARIGUI CI  ER       R$  000000000827100000000083350000000008213000000000825600000000082240000000008220000000000822400864000000000000007470000000000061676262000000000000009999123100000010000000000000BRBARICTF003147
012023030212BLCA11      010FII BLUE AAACI           R$  000000001150000000000115000000000011500000000001150000000000115000000000009048000000001150000002000000000000000011000000000000126500000000000000009999123100000010000000000000BRBLCACTF009114
012023030212BLMC11      010FII BLUE CRICI           R$  000000000755300000000076140000000007550000000000755100000000075500000000007550000000000761500005000000000000000043000000000000324722000000000000009999123100000010000000000000BRBLMCCTF004124
012023030212BLMG11      010FII BLUE LOGCI           R$  000000000694800000000069880000000006906000000000695900000000069800000000006959000000000698000413000000000000005402000000000037593282000000000000009999123100000010000000000000BRBLMGCTF005130
012023030212BLMR11      010FII BLUE FOFCI           R$  000000000062300000000006310000000000621000000000062300000000006220000000000622000000000062301948000000000000043404000000000027079957000000000000009999123100000010000000000000BRBLMRCTF002125
012023030212BMLC11      010FII BMBRC LCCI           R$  000000001018900000000101890000000009790000000000992000000000100500000000010050000000001018900039000000000000000554000000000005496107000000000000009999123100000010000000000000BRBMLCCTF004234
012023030212BNFS11      010FII BANRISULCI  ER       R$  000000001216000000000121690000000012100000000001214200000000121390000000012139000000001214000036000000000000000213000000000002586384000000000000009999123100000010000000000000BRBNFSCTF000226
012023030212CEOC11      010FII CEO CCP CI           R$  000000000544100000000054780000000005439000000000545100000000054390000000005423000000000546100047000000000000000968000000000005276619000000000000009999123100000010000000000000BRCEOCCTF003199
012023030212CJCT11      010FII CJCTOWERCI           R$  000000000675000000000067510000000006750000000000675000000000067500000000006750000000000687900004000000000000000505000000000003408753000000000000009999123100000010000000000000BRCJCTCTF001103
012023030212CXRI11      010FII CX RBRAVCI  ER       R$  000000000595100000000061330000000005951000000000606600000000061020000000006062000000000617800021000000000000000123000000000000746182000000000000009999123100000010000000000000BRCXRICTF003213
012023030212CXTL11      010FII CX TRX  CI  ERA      R$  000000003900100000000398980000000039001000000003943900000000394190000000039000000000003941900003000000000000000003000000000000118318000000000000009999123100000010000000000000BRCXTLCTF003222
012023030212CYCR11      010FII CYRELA  CI  ER       R$  000000000080500000000008100000000000799000000000080300000000008100000000000807000000000081002478000000000000037656000000000030266182000000000000009999123100000010000000000000BRCYCRCTF004123
012023030212MORC11      010FII MORE CRICI  ER       R$  000000000940000000000094850000000009313000000000940000000000094730000000009391000000000947100419000000000000002311000000000021723842000000000000009999123100000010000000000000BRMORCCTF004123
012023030212MORE11      010FII MORE RE CI           R$  000000000614700000000061790000000006056000000000610300000000061720000000006065000000000617200975000000000000003502000000000021375559000000000000009999123100000010000000000000BRMORECTF000135
012023030212ALZM11      010FII ALIANZMECI           R$  000000000837000000000085160000000008210000000000831900000000083980000000008371000000000839800068000000000000000739000000000006148387000000000000009999123100000010000000000000BRALZMCTF007106
012023030212ALZR11      010FII ALIANZA CI           R$  000000001120800000000112100000000011100000000001119300000000111900000000011189000000001119001235000000000000006947000000000077758119000000000000009999123100000010000000000000BRALZRCTF006165
012023030212BPFF11      010FII ABSOLUTOCI  ER       R$  000000000606800000000060750000000006005000000000605600000000060600000000006060000000000606900477000000000000003864000000000023402432000000000000009999123100000010000000000000BRBPFFCTF002221
012023030212BPML11      010FII BTG SHOPCI           R$  000000000570000000000058860000000005700000000000583900000000058080000000005808000000000584900015000000000000000028000000000000163517000000000000009999123100000010000000000000BRBPMLCTF006124
012023030212BRCO11      010FII BRESCO  CI  ER       R$  000000000955000000000096700000000009301000000000947000000000095100000000009506000000000951005983000000000000029913000000000283301551000000000000009999123100000010000000000000BRBRCOCTF007140
012023030212BRCR11      010FII BC FUND CI           R$  000000000543000000000055500000000005430000000000548000000000054900000000005490000000000549203757000000000000025045000000000137270731000000000000009999123100000010000000000000BRBRCRCTF000250
012023030212BREV11      010FII BRE VIC CI           R$  000000001000000000000103000000000010000000000001024000000000103000000000000000000000001025000002000000000000000005000000000000051200000000000000009999123100000010000000000000BRBREVCTF008139
